{
  "contractName": "PaymentProcessor",
  "abi": [
    {
      "inputs": [
        {
          "internalType": "address",
          "name": "adminAddress",
          "type": "address"
        },
        {
          "internalType": "address",
          "name": "qbnAddress",
          "type": "address"
        }
      ],
      "stateMutability": "nonpayable",
      "type": "constructor"
    },
    {
      "anonymous": false,
      "inputs": [
        {
          "indexed": false,
          "internalType": "address",
          "name": "payer",
          "type": "address"
        },
        {
          "indexed": false,
          "internalType": "uint256",
          "name": "amount",
          "type": "uint256"
        },
        {
          "indexed": false,
          "internalType": "uint256",
          "name": "paymentId",
          "type": "uint256"
        },
        {
          "indexed": false,
          "internalType": "uint256",
          "name": "date",
          "type": "uint256"
        }
      ],
      "name": "PaymentDone",
      "type": "event"
    },
    {
      "inputs": [],
      "name": "admin",
      "outputs": [
        {
          "internalType": "address",
          "name": "",
          "type": "address"
        }
      ],
      "stateMutability": "view",
      "type": "function"
    },
    {
      "inputs": [],
      "name": "qbn",
      "outputs": [
        {
          "internalType": "contract IERC20",
          "name": "",
          "type": "address"
        }
      ],
      "stateMutability": "view",
      "type": "function"
    },
    {
      "inputs": [
        {
          "internalType": "uint256",
          "name": "amount",
          "type": "uint256"
        },
        {
          "internalType": "uint256",
          "name": "paymentId",
          "type": "uint256"
        }
      ],
      "name": "pay",
      "outputs": [],
      "stateMutability": "nonpayable",
      "type": "function"
    }
  ],
  "bytecode": "0x608060405234801561001057600080fd5b506040516105cf3803806105cf8339818101604052810190610032919061011d565b816000806101000a81548173ffffffffffffffffffffffffffffffffffffffff021916908373ffffffffffffffffffffffffffffffffffffffff16021790555080600160006101000a81548173ffffffffffffffffffffffffffffffffffffffff021916908373ffffffffffffffffffffffffffffffffffffffff160217905550505061015d565b600080fd5b600073ffffffffffffffffffffffffffffffffffffffff82169050919050565b60006100ea826100bf565b9050919050565b6100fa816100df565b811461010557600080fd5b50565b600081519050610117816100f1565b92915050565b60008060408385031215610134576101336100ba565b5b600061014285828601610108565b925050602061015385828601610108565b9150509250929050565b6104638061016c6000396000f3fe608060405234801561001057600080fd5b50600436106100415760003560e01c8063370b65a014610046578063ef48eee614610064578063f851a44014610080575b600080fd5b61004e61009e565b60405161005b919061026b565b60405180910390f35b61007e600480360381019061007991906102c1565b6100c4565b005b6100886101c8565b6040516100959190610322565b60405180910390f35b600160009054906101000a900473ffffffffffffffffffffffffffffffffffffffff1681565b600160009054906101000a900473ffffffffffffffffffffffffffffffffffffffff1673ffffffffffffffffffffffffffffffffffffffff166323b872dd3360008054906101000a900473ffffffffffffffffffffffffffffffffffffffff16856040518463ffffffff1660e01b81526004016101439392919061034c565b6020604051808303816000875af1158015610162573d6000803e3d6000fd5b505050506040513d601f19601f8201168201806040525081019061018691906103bb565b507f78eaebe37a28490ff43ed0e95bdc47de1587156ac0069b652e1d2d9f42464e98338383426040516101bc94939291906103e8565b60405180910390a15050565b60008054906101000a900473ffffffffffffffffffffffffffffffffffffffff1681565b600073ffffffffffffffffffffffffffffffffffffffff82169050919050565b6000819050919050565b600061023161022c610227846101ec565b61020c565b6101ec565b9050919050565b600061024382610216565b9050919050565b600061025582610238565b9050919050565b6102658161024a565b82525050565b6000602082019050610280600083018461025c565b92915050565b600080fd5b6000819050919050565b61029e8161028b565b81146102a957600080fd5b50565b6000813590506102bb81610295565b92915050565b600080604083850312156102d8576102d7610286565b5b60006102e6858286016102ac565b92505060206102f7858286016102ac565b9150509250929050565b600061030c826101ec565b9050919050565b61031c81610301565b82525050565b60006020820190506103376000830184610313565b92915050565b6103468161028b565b82525050565b60006060820190506103616000830186610313565b61036e6020830185610313565b61037b604083018461033d565b949350505050565b60008115159050919050565b61039881610383565b81146103a357600080fd5b50565b6000815190506103b58161038f565b92915050565b6000602082840312156103d1576103d0610286565b5b60006103df848285016103a6565b91505092915050565b60006080820190506103fd6000830187610313565b61040a602083018661033d565b610417604083018561033d565b610424606083018461033d565b9594505050505056fea2646970667358221220ec1105160825956ac21ba2929a86cca0919b18f6ce14a14497c7dcbef009a0ac64736f6c634300080c0033",
  "immutableReferences": {},
  "source": "//SPDX-License-Identifier:MIT\r\npragma solidity ^0.8.9;\r\n\r\nimport \"@openzeppelin/contracts/token/ERC20/IERC20.sol\";\r\n\r\n\r\ncontract PaymentProcessor {\r\n    address public admin;\r\n    IERC20 public qbn;\r\n\r\n    event PaymentDone(\r\n        address payer,\r\n        uint amount,\r\n        uint paymentId,\r\n        uint date\r\n    );\r\n\r\n    constructor( address adminAddress, address qbnAddress) {\r\n        admin = adminAddress;\r\n        qbn = IERC20(qbnAddress);\r\n\r\n    }\r\n\r\n    function pay(uint amount, uint paymentId) external {\r\n        qbn.transferFrom(msg.sender, admin, amount);\r\n        emit PaymentDone(msg.sender, amount, paymentId, block.timestamp);\r\n        \r\n\r\n    }\r\n}",
  "sourcePath": "C:\\storequrban\\contracts\\PaymenProcessor.sol",
  "compiler": {
    "name": "solc",
    "version": "0.8.12+commit.f00d7308.Emscripten.clang"
  },
  "schemaVersion": "3.4.9",
  "updatedAt": "2022-09-28T05:42:05.008Z",
  "devdoc": {
    "kind": "dev",
    "methods": {},
    "version": 1
  },
  "userdoc": {
    "kind": "user",
    "methods": {},
    "version": 1
  }
}